:020000040800F2
:1000000018060020010100088B1A0008F3150008EB
:10001000891A000891010008DD2000080000000096
:10002000000000000000000000000000771D000834
:10003000FD02000800000000751D0008791D000881
:100040001B0100081B0100081B0100081B01000820
:100050001B0100081B0100081B0100081B01000810
:100060001B0100081B0100081B0100081B01000800
:100070001B0100081B0100081B0100081B010008F0
:100080001B0100081B0100081B0100081B010008E0
:100090001B0100081B0100081B0100081B010008D0
:1000A0001B0100081B0100081B0100081B010008C0
:1000B0001B0100081B0100081B0100081B010008B0
:1000C0001B0100081B0100081B0100081B010008A0
:1000D0001B010008C5200008D12000081B010008F2
:1000E0001B0100081B0100081B010008DFF80CD0F1
:1000F00000F03CF80048004769220008180600207C
:100100000648804706480047FEE7FEE7FEE7FEE7B1
:10011000FEE7FEE7FEE7FEE7FEE7FEE7DB1D000881
:10012000ED000008D2B201E000F8012B491EFBD21D
:1001300070470022F6E710B513460A4604461946F2
:10014000FFF7F0FF204610BD30B505462A460B46A6
:1001500012F8010B13F8014B08B1A042F8D01CB102
:10016000002802D06D1CF1E7284630BD064C074D33
:1001700006E0E06840F0010394E807009847103477
:10018000AC42F6D3FFF7B6FFB02D0008D02D000823
:10019000FEE700001FB52020009000200190032002
:1001A00003906946014800F047F91FBD000801406F
:1001B0001FB5202000900120019003200390694684
:1001C000014800F039F91FBD0008014070B5002555
:1001D000FFF7EEFF284E00222021304600F021FAE2
:1001E000122000F017F901222021304600F019FA00
:1001F000142000F085F8FFF7CDFF142000F080F800
:100200002021304600F008FA1C4C28B126E00120DD
:1002100000F076F86D1CEDB22021304600F0FCF9BC
:1002200008B9642DF3D3002504E0012000F068F83C
:100230006D1CEDB22021304600F0EEF9012801D10D
:10024000642DF2D35FF0000500F01AF860556D1CC4
:10025000EDB2052DF8D3322000F052F82078617805
:10026000E2780844A178114408442179814201D1FF
:10027000012070BD002070BD00080140000000207A
:100280002DE9F041002425462646DFF86C8004E085
:10029000012000F035F86D1CEDB2202147464046A4
:1002A00000F0BAF908B9642DF2D30025282000F037
:1002B00027F82021B846384600F0AEF9012801D0D1
:1002C000002706E0012704E0012000F019F86D1C6A
:1002D000EDB22021404600F09FF9012801D1642DA4
:1002E000F2D36006761C0025F6B247EA1064082EA9
:1002F000D3D32046BDE8F0810008014070470000DC
:1003000070B54FF6FA75094E281A84B23068446207
:10031000304600F0ABFE306801E0416A8CB2AC427E
:10032000FBD3BDE87040014800F0C8BE7400002057
:1003300072B6FEE710B590F821100022022905D010
:100340000421816380F82020012010BD01680B6822
:1003500023F00E030B6001680B6823F001030B60B0
:1003600090F84030C46B012101FA03F3636080F818
:10037000211080F82020104610BD000010B590F824
:1003800021100024022903D00421816301243DE0CF
:1003900001680A6822F00E020A6001680A6822F009
:1003A00001020A601A4A0168914201D1012121E04B
:1003B000174A1432914201D110211BE0144A28320D
:1003C000914201D1891515E0114A3C32914201D187
:1003D00089140FE00E4A5032914202D14FF480311D
:1003E00008E00B4A6432914202D14FF4801101E0DF
:1003F0004FF08071064A083A5160012180F82110BF
:10040000002180F82010416B01B18847204610BDC3
:100410000800024070B5044600F008F90546601C6B
:1004200002D004480078044400F000F9401BA042C8
:10043000FAD370BD0C0000202DE9F84FDFF8B89119
:100440000024A9F1040B23460F2709F1040AABF19C
:10045000040EC9E00125A5402A40AA427DD1674E7D
:10046000D1F804C0ACEB0608B44532D014DCBCF1C2
:10047000030F3AD009DCBCF1000F2AD0BCF1010F08
:100480001CD0BCF1020F31D11DE0BCF1110F17D00F
:10049000BCF1120F2AD119E0B8F5881F19D006DC7B
:1004A000B8F5803F15D0B8F5801F1FD111E0B8F521
:1004B000001F0ED0B8F5041F18D10AE0CB6815E074
:1004C000CB681B1D12E0CB6808330FE0CB680C3300
:1004D0000CE08B682BB1012B4FF0080303D0456172
:1004E00004E0042302E0056100E00023FF2A01D8B4
:1004F000064601E000F104064FEA840501D9A5F1A2
:100500002005D6F8008007FA05FC28EA0C0803FA53
:1005100005F548EA0508C6F800804D68ED0062D58B
:10052000374DAE6946F00106AE61AD6924F00306B1
:1005300005F001050095334D06EB050CDCF808507D
:10054000A607360F07FA06F825EA0805DFF8B8808F
:10055000404503D14FF0000817E044E0DFF8AC80DD
:10056000404502D14FF001080FE0DFF8A48040457C
:1005700002D14FF0020808E0DFF89880404502D130
:100580004FF0030801E04FF0040808FA06F848EAC3
:100590000508CCF808804D68D9F80060ED024D469A
:1005A00001D5164300E096432E604D68DAF80060EE
:1005B000AD02554601D5164300E096432E604D68C6
:1005C000DBF80060AD035D4601D5164300E09643BD
:1005D0002E604D68DEF80060ED03754601D51643C8
:1005E00000E096432E60641C0D682A46E5407FF4C7
:1005F00031AFBDE8F88F0000080401400000111081
:10060000001002400000014000080140000C0140C1
:1006100000100140001401408068084000D0012013
:1006200070470AB1016170470904FBE7014880681F
:10063000704700000C00002070B5040025D094F82D
:100640003D00002520B984F83C50204600F050F9C8
:10065000242084F83D002068016821F00101016038
:100660002068016841F4004101602068016821F4BC
:100670000041016000F09AFA4D4A6168914201D848
:100680004C4900E04C49884201D2012070BD4B49E1
:100690002368B0FBF1F15E6826F03F060E435E6012
:1006A0006368934206D94FF4967359434FF47A73B3
:1006B000B1FBF3F12368491C1E6A26F03F06314363
:1006C00019626168914210D84900401EB0FBF1F2F6
:1006D000521CC2F30B02042A01D2042022E0B0FB18
:1006E000F1F0401CC0F30B001CE0A268F2B301EB78
:1006F000C10303EB0116431EB3FBF6F35B1C43F48B
:1007000080431B0549D092B301EBC10202EB0111FA
:10071000401EB0FBF1F0401CC0F30B0040F48040E1
:1007200040F400402168CA694CF6FF739A431043B5
:10073000C861D4E9071001432068026822F0C002B2
:1007400011430160D4E9030101432068826848F243
:10075000FF339A4311438160D4E9050108432168BE
:10076000CA6822F0FF021043C86001E00EE016E004
:100770002068016841F0010101602564202084F8AF
:100780003D00256384F83E50002070BD01EB41061A
:10079000431EB3FBF6F35B1CB3E70120C2E701EB9A
:1007A0004101401EB0FBF1F0401CC0F30B00B7E765
:1007B000A086010080841E0000093D0040420F0019
:1007C0002DE9FF4F83B09A46DDE911979346044621
:1007D000DDF84080FFF72AFF054694F83D00202809
:1007E0007FD11923012240492046009500F09AFF4D
:1007F000002876D194F83C00012872D0012084F8BA
:100800003C0020680168C90703D1016841F001017B
:1008100001602068016821F400610160212084F8F2
:100820003D00402084F83E0000262664C4F8248061
:10083000A4F82A90608D20852C48E062CDE90075EF
:1008400053465A462046049900F0ECFE70B930E059
:100850002A463946204601F00BF858B1206C04288E
:1008600004D12068016841F400710160012007B0E3
:10087000BDE8F08F606A216800780861606A401CFA
:100880006062218D491E89B22185628D521E62856A
:1008900022685369DB435B070BD469B100781061B0
:1008A000606A401C6062208D401E2085608D401E65
:1008B0006085208D0028CBD12A463946204600F09D
:1008C00005FF0028CAD154F83D0B016841F40071BE
:1008D0000160202004F81E09E67766770020C6E74D
:1008E000FFE70220C3E70000020010000000FFFF46
:1008F00010B586B00021009101910291039100682A
:10090000104988421BD1104CA06940F00800A0613A
:10091000A069694600F0080004904FF44060009020
:1009200012200190032003900848FFF785FDE0693D
:1009300040F48000E061E06900F48000049006B0BB
:1009400010BD00000058004000100240000C0140A3
:100950000248816802781144816070470C000020D1
:10096000074810B5016841F010010160032000F054
:1009700075F80F2000F006F800F024F8002010BDF4
:100980000020024070B50D4D04464FF47A7128786E
:10099000B1FBF0F00A490968B1FBF0F000F0DCFAB5
:1009A00048B9102C07D200222146501E00F036F81C
:1009B00000206C6070BD012070BD00000C000020A4
:1009C000180000200C4808B5816941F001018161DF
:1009D000816901F001010091C16941F08051C1615B
:1009E000C06900F0805000900448416821F0E06147
:1009F00041F08061416008BD0010024000000140EC
:100A0000002809DB00F01F0201219140400980000D
:100A100000F1E020C0F8001170470000F0B40E4B68
:100A20001B680C46C3F30223C3F10705042D00D94C
:100A30000425191D072901D2002300E0DB1E012631
:100A400006FA05F1491E214099409E40761E164047
:100A50003143F0BC01F070BB0CED00E0064900F042
:100A6000070208684FF6FF03184040EA0220034AD5
:100A700010430860704700000CED00E00000FA052C
:100A80002DE9F0470F46050061D0434E306800F075
:100A90000700B84209D2306820F0070038433060C0
:100AA000306800F00700B84251D128683B4C8107FC
:100AB00012D5400703D5606840F4E0606060287894
:100AC000000703D5606840F4605060606068A96802
:100AD00020F0F000084360602878C00728D06868DC
:100AE000012810D02168022810D0890700292EDAA9
:100AF000616821F0030101436160FFF797FD8046C3
:100B000041F288390DE021688903EFE78901EDE7BB
:100B1000FFF78CFDA0EB0801494502D90320BDE891
:100B2000F0876068696800F00C00B0EB810FEFD1CE
:100B3000306800F00700B8420BD9306820F0070099
:100B400038433060306800F00700B84201D001201F
:100B5000E5E72878400705D56068E96820F4E0609B
:100B6000084360602878000706D56068296920F48A
:100B7000605040EAC100606000F038F86168084ADF
:100B8000C1F30311515CC84006490860064800687B
:100B9000FFF7F8FE0020C2E70020024000100240EC
:100BA0009A2B000818000020100000200448054976
:100BB00000684968044AC1F30221515CC84070478B
:100BC0001800002000100240AA2B00080448054924
:100BD00000684968044AC1F3C221515CC8407047AB
:100BE0001800002000100240AA2B00080E4A51688D
:100BF0000E4801F00C03042B11D0082B0FD10C4828
:100C0000C1F38343C903C05C0AD55168084AC1F3E4
:100C10004041921E515C054A5043B0FBF1F07047D1
:100C200004494843704700000010024000127A0057
:100C30008A2B000800093D002DE9F84F040070D010
:100C40002078C04DC00749D06868C0F381000128F2
:100C500007D06868C0F38100022809D16868C00322
:100C600006D52868800339D560680028E7D035E0CC
:100C70006068B0F5803F0BD010B1B0F5A02F11D057
:100C8000286820F480302860286820F4802002E062
:100C9000286840F480302860606890B1FFF7C6FC97
:100CA00006460AE0286840F480202860F0E700BF8C
:100CB000FFF7BCFC801B642873D828688003F7D535
:100CC0000CE0FFF7B3FC064605E000BFFFF7AEFC03
:100CD000801B6428F0D828688003F7D420789A4EC7
:100CE00080074FF001094FF0000839D5686810F00F
:100CF0000C0F07D06868C0F38100022809D168682A
:100D0000C00306D42868800714D52069012808D1BB
:100D100010E02069B0B1C6F80090FFF787FC0746E5
:100D200005E00AE1FFF782FCC01B0228C4D828684E
:100D30008007F7D52868616920F0F80040EAC10013
:100D400028600DE0C6F80080FFF770FC074604E05D
:100D5000FFF76CFCC01B022823D828688007F7D453
:100D6000207800072CD57948A169D9B1C0F8009046
:100D7000FFF75CFC074604E0FFF758FCC01B0228A5
:100D80000FD8686A8007F7D571484FF4FA510068A8
:100D9000B0FBF1F0009000BF0098411E0091FAD224
:100DA0000EE080E0C0F80080FFF740FC074604E05A
:100DB000FFF73CFCC01B022875D8686A8007F7D48F
:100DC0002078400760D5E8690027C00008D4E869AA
:100DD00040F08050E861E869012700F08050009001
:100DE0005C480168C90513D40168834641F48071E9
:100DF0000160FFF71BFC824606E000BFFFF716FC10
:100E0000A0EB0A0064284ED8DBF80000C005F5D539
:100E1000E06801280AD008B1052813D0286A20F01C
:100E200001002862286A20F0040002E0286A40F0ED
:100E300001002862E06841F2883B98B1FFF7F6FBB9
:100E400082460BE0286A40F004002862EEE700BF0B
:100E5000FFF7ECFBA0EB0A0159455AD8286A800736
:100E6000F6D50CE0FFF7E2FB824605E0FFF7DEFB7C
:100E7000A0EB0A0159454CD8286A8007F6D41FB167
:100E8000E86920F08050E861E06988B36968C1F3DF
:100E90008101022944D00228C6F8608004D0FFF7FF
:100EA000C5FB044638E034E0FFF7C0FB074604E02A
:100EB000FFF7BCFBC01B02282BD828688001F7D4A1
:100EC000206AB0F5803F05D16868A16820F4003041
:100ED00008436860D4E908010843696821F4741183
:100EE00008436860C6F86090FFF7A0FB044606E080
:100EF00025E000BFFFF79AFB001B022809D82868ED
:100F00008001F7D51BE000BFFFF790FB001B022814
:100F100002D90320BDE8F88F28688001F4D40EE0E0
:100F20000128F7D06868226A00F48031914204D128
:100F3000616A00F47010884201D00120EAE70020C5
:100F4000E8E70000001002400000424280044242F4
:100F5000180000200070004010B5401EB0F1807FE6
:100F600001D3012010BD4FF0E02460610F21601714
:100F700001F0E2F80020A06107202061002010BDF0
:100F800070B590F83C20012A26D0012480F83C401E
:100F9000022280F83D2003685A689D6822F070069E
:100FA0000A6832435A600D4B02689A4208D0B2F187
:100FB000804F05D00A4B9A4202D00A4B9A4204D184
:100FC000496825F080031943916080F83D40002175
:100FD00080F83C10084670BD022070BD002C014016
:100FE000000400400008004010B5040003D094F84D
:100FF0003D0010B107E0012010BD002084F83C0046
:10100000204600F01FF8022084F83D00211D2068D2
:1010100000F0E4FE012084F8460084F83E0084F8E5
:101020003F0084F8400084F8410084F8420084F8CE
:10103000430084F8440084F8450084F83D00002013
:1010400010BD000008B500680649884208D106486E
:10105000816941F400618161806900F40060009061
:1010600008BD0000002C01400010024090F83D1027
:10107000012901D001207047022180F83D1000684D
:101080000B49884208D0B0F1804F05D00949884209
:1010900002D00949884204D1816801F0070106297C
:1010A00003D0016841F00101016000207047000099
:1010B000002C0140000400400008004001680A6A5A
:1010C00041F211131A4207D10A6A9B101A4203D146
:1010D0000A6822F001020A60012180F83D10002018
:1010E000704770B5044690F83C000025012817D0E1
:1010F000012684F83C60022084F83D002068826864
:1011000022F0770222F47F4282600868502838D0AB
:101110000DDC20284FD005DC90B3102811D14AE017
:10112000022070BD302846D040280AD13BE060281C
:101130002FD070280DD0B0F5805F03D0B0F5005FE0
:1011400012D0012584F83D60002084F83C00284638
:1011500070BDCB68D1E90121206800F075FE2068E0
:10116000816841F0770109E0CB68D1E9012120686D
:1011700000F06AFE2068816841F480418160E1E707
:1011800019E0CA684968206800F070FE50212068A4
:1011900006E0CA684968206800F079FE602120688E
:1011A00000F05CFECEE7CA684968206800F05EFE89
:1011B00040212068F4E7226801461046F0E77047B6
:1011C00070470000F8B5016804460868CA684B69B2
:1011D00010F00F0F4FF000055AD003F0010602F493
:1011E0009077374365D0C10705D0D10503D5616C31
:1011F00041F001016164410705D5D90703D0616C55
:1012000041F002016164810705D5D90703D0616C03
:1012100041F004016164010707D502F02001314368
:1012200003D0616C41F008016164616C00293BD01E
:10123000800604D5900602D5204600F069FE20689D
:101240004069616CC0F3801001F008010143204641
:101250002BD000F036FE20684069400621D520687A
:10126000143050E8001F21F0400140E80012002A2D
:10127000F5D1E06BA8B16D494163E06BFFF77EF8F3
:10128000002811D0E06B416B01B0BDE8F040084789
:1012900083060ED593060CD52046BDE8F84000F035
:1012A00037BE2046FFF78CFFF8BDFFF789FF656466
:1012B000F8BD266B2023012E7CD1C6067AD5D60632
:1012C00078D508684868009048694FF002064006E3
:1012D00040D5E16B086840680004000CE8D0A28D9E
:1012E0008242E5D9E085886920282DD020680C301D
:1012F00050E8001F21F4807140E80012002AF5D167
:101300002168143151E8000F20F0010041E800028B
:10131000002AF5D12068143050E8001F21F0400168
:1013200040E80012002AF5D184F842302563206895
:101330000C3050E8001F21F0100140E80012002A94
:10134000F5D1E06BFEF7F6FF6663A08DE18D401AE4
:1013500081B22AE0A08DE18D401A81B2E08D002893
:10136000A6D00029A4D022680C3252E8000F20F445
:10137000907042E80007002FF5D12068143050E843
:10138000002F22F0010240E80027002FF5D184F859
:101390004230256320680C3050E8002F22F0100204
:1013A00040E80023002BF5D166632046FFF707FFD6
:1013B000F8BDFFE705062BD5150629D594F84100A1
:1013C0002128F5D1A068B0F5805F01D12069B0B1C6
:1013D000206A411C2162216800784860E08C401E30
:1013E0000004000CE084E3D12068C16821F0800192
:1013F000C1602068C16841F04001C160D8E7206A3F
:101400000088C0F308004860206A801C2062E5E77D
:101410004006CDD55006CBD5CA68204622F0400202
:10142000CA6084F8413000F0E3F8C1E7B31E000859
:1014300070B5040004D094F84100002510B106E016
:10144000012070BD84F84050204600F023F824208D
:1014500084F841002068C16821F40051C160204631
:1014600000F0B8FD2068016921F490410161206815
:10147000416921F02A0141612068C16841F40051AD
:10148000C1606564202084F8410084F842006563EF
:10149000002070BD70B586B00024009401940294C1
:1014A00003942E4E03682E49022003222D4DB34291
:1014B00026D18B6943F480438B618B6903F48043AD
:1014C00004938B6943F004038B618969039201F0F3
:1014D000040104910102CDE9001069462846FEF797
:1014E000ABFF2815CDE90004694628460294FEF7B3
:1014F000A3FF002211462520FFF790FA252028E0BF
:10150000194EB34227D1CB6943F40033CB61CB6989
:1015100003F4003304938B6943F004038B618969FE
:10152000039201F0040104910421CDE90010694601
:101530002846FEF781FF0820CDE9000469462846C9
:101540000294FEF779FF002211462620FFF766FA83
:101550002620FFF755FA06B070BD000000380140A4
:1015600000100240000801400044004090F8423062
:10157000202B01D00220704721B11AB10023036350
:1015800000F084BD0120704730B4006814498842DF
:1015900024D1144841880A0416D402464C04127817
:1015A0004FF0000304D50A2A0DD141F4004113E0A5
:1015B0000D2A0FD0C1F30D040B4D491C89B22A55D9
:1015C0004180C72900D9438030BC01220549074822
:1015D000FFF7CCBF41F480414180F5E730BC704754
:1015E00000380140060000204C010020BC00002013
:1015F0007047FEE701684A69D24352050FD46FF481
:1016000080624A61002140F8301F202242738173BA
:10161000026942F004020261017301207047002058
:10162000704700002DE9F843044600680D46DDE9E7
:10163000089701689846164641F4807101604B4650
:1016400000224FF001112046009700F06BF848B1DE
:1016500020680068C00502D54FF4007020640320A4
:10166000BDE8F883216805F0FE0008613B464A4664
:101670001549204600F09EF888B9206841698069C4
:1016800000903A464946204600F0F2F848B1206CF6
:10169000042804D12068016841F400710160012030
:1016A000DEE7F5B2B8F1010F09D02168300A086110
:1016B0003A464946204600F0DBF80028E7D120688A
:1016C00005610020CCE700000200010070B516465D
:1016D0000D4604461EE02046FFF78CFF08B10120AE
:1016E00070BD681C16D0FEF7A1FF801BA84200D871
:1016F00085B920684069C04340070BD5002044F8F5
:10170000300F20216173A073216941F02001216114
:101710002073E4E720684069C0434007DBD4002021
:1017200070BD00002DE9F047984617460D46044667
:10173000C1F30746DDF820902AE000BFB8F1FF3F73
:1017400026D0FEF773FFA0EB0901414502D8B8F19E
:10175000000F1DD12068012E16D0806925EA0000F7
:101760000004000C12D00020B84211D1002044F82F
:10177000300F20216173A073216941F020012161A4
:1017800020730120BDE8F0874069E7E70120EBE71F
:101790002068012E0AD0806925EA00000004000CB0
:1017A00006D00020B842C9D00020EBE74069F3E73B
:1017B0000120F7E72DE9F047984616460D46044606
:1017C0004FF000094FF0200AC1F3074723E02068DB
:1017D0004069C043400515D42068016841F4007198
:1017E000016021686FF480604861C4F8309084F82B
:1017F0003DA084F83E90216C41F00401216484F8FE
:101800003C9021E0701C06D0FEF710FFA0EB080012
:10181000B04203D816B1012F1FD021E02068012F5C
:1018200015D0806925EA00000004000C18D000BF24
:1018300044F8309F84F80DA084F80E90216941F09F
:101840002001216184F80C900120BDE8F0874069F7
:1018500025EA00000004000CEAD12068406901E09C
:101860002068806925EA00000004000CAFD1ECE795
:1018700070B516460D4604461EE02046FFF7BAFE38
:1018800008B1012070BD681C16D0FEF7CFFE801B8A
:10189000A84200D885B920684069C04300060BD52E
:1018A000002044F8300F20216173A073216941F0BA
:1018B000200121612073E4E720684069C0430006ED
:1018C000DBD4002070BD00002DE9F04186B000247B
:1018D00024480094019402940394816941F010011A
:1018E0008161816901F010010491816941F0200159
:1018F0008161816901F020010491816941F0040155
:101900008161816901F004010491816941F008015C
:1019100081618069012200F00800134F5503049093
:1019200029463846FEF77DFEDFF840800022A021E0
:101930004046FEF776FE0095022601250396CDE986
:10194000015469463846FEF777FDA020CDE9000531
:10195000CDE9024669464046FEF76EFD06B0BDE899
:10196000F08100000010024000100140000801401A
:101970000D4810B50B4901600C49416000214FF43E
:1019800080428160C0E9031241618161C1610162ED
:10199000FEF752FE002803D0BDE81040FEF7C8BC99
:1019A00010BD00000058004020000020A08601006B
:1019B00010B586B000241748009401940294039453
:1019C00004941349059401604721C0E901144FF6BE
:1019D000FF71C0E9031444618461FFF705FB08B19E
:1019E000FEF7A6FC4FF48050009069460948FFF7C7
:1019F00078FB08B1FEF79CFC049404A90548059403
:101A0000FFF7BEFA002801D0FEF792FC06B010BD29
:101A1000002C0140740000200C4810B50A490160F8
:101A20004FF4E1314160002181600C22C160C0E9C6
:101A300004128161C161FFF7FBFC002803D0BDE8FF
:101A40001040FEF775BC10BD00380140BC000020FE
:101A50000C4810B50A4901604FF4E13141600021A2
:101A600081600C22C160C0E904128161C161FFF78D
:101A7000DFFC002803D0BDE81040FEF759BC10BDC4
:101A80000044004004010020FEE7FEE7002000F0D3
:101A900001B8000070B506465FF0000404F1B00024
:101AA000C0B200F01DFB002000F01AFB102000F077
:101AB00017FB0025304600F025FB6D1CEDB2802D94
:101AC000F8D3641CE4B2082CE8D370BD10B56420D0
:101AD000FEF7A0FCAE2000F003FB202000F000FB8E
:101AE000102000F0FDFAB02000F0FAFAC82000F053
:101AF000F7FA002000F0F4FA102000F0F1FA40208C
:101B000000F0EEFA812000F0EBFAFF2000F0E8FA96
:101B1000A12000F0E5FAA62000F0E2FAA82000F0EB
:101B2000DFFA3F2000F0DCFAA42000F0D9FAD3203D
:101B300000F0D6FA002000F0D3FAD52000F0D0FA59
:101B4000F02000F0CDFAD92000F0CAFA222000F0EF
:101B5000C7FADA2000F0C4FA122000F0C1FADB2044
:101B600000F0BEFA202000F0BBFA8D2000F0B8FA99
:101B7000142000F0B5FABDE81040AF2000F0B0BA74
:101B800010B50446B031C8B200F0AAFA102040EAFD
:101B9000141000F0A5FA04F00F00BDE8104040F06A
:101BA000010000F09DBA00002DE9F041203A002428
:101BB0000D468046D6B27F2803D900208D1C804672
:101BC000EDB2102B29460FD0FFF7DAFF164906EBCE
:101BD000460001EB4005285D00F094FA641CE4B275
:101BE000062CF8D3BDE8F081FFF7CAFF0F4F00BF06
:101BF00004EB0610385C00F085FA641CE4B2082C93
:101C0000F6D36D1CE9B24046FFF7BAFF5FF000045F
:101C100004EB06103844007A00F074FA641CE4B255
:101C2000082CF5D3DEE70000702300089825000893
:101C30002DE9F05F0026DDF828901D4692468B4680
:101C4000804634464FEA590723E0281B401EC1B2A4
:101C50000A2000F085FBBAFBF0F00A21B0FBF1F29C
:101C600001FB120026B9691E8C4201DA38B1012647
:101C70003030C2B207FB0480C0B24B4604E007FB21
:101C80000480C0B24B4620225946FFF78DFF641CEA
:101C9000E4B2AC42D9D3BDE8F09F00002DE9F04793
:101CA000002591468A460446012B22D0DFF8BC80ED
:101CB000022B24D155E02038C7B27E2C04D90AF17A
:101CC0000100002400F0FF0A51462046FFF758FFAC
:101CD00007EB4700002608EB4007B85D00F012FA5A
:101CE000761CF6B2062EF8D3A41D6D1CE4B2EDB23C
:101CF00001E0DFF87C8019F805000028DBD1BDE8A1
:101D0000F0872038C7B2782C04D90AF101000024EA
:101D100000F0FF0A51462046FFF732FF5FF0000651
:101D200006EB071118F8010000F0ECF9761CF6B28A
:101D3000082EF5D30AF10100C1B22046FFF720FFBB
:101D40005FF0000606EB071101EB0800007A00F0D7
:101D5000D9F9761CF6B2082EF4D308346D1CE4B21F
:101D6000EDB219F805000028CBD1C8E79825000886
:101D70007023000870477047FEF7EABD30B58FB09A
:101D800028216846FEF7D5F914210AA8FEF7D1F9F3
:101D900001210804CDE900100024029402250491D9
:101DA000CDE907504FF4E01009906846FEF744FF74
:101DB00008B172B6FEE70F20CDE90A054FF4806046
:101DC000CDE90C4002210AA80E94FEF759FE002826
:101DD00001D072B6FEE70FB030BD7047F0B50268B3
:101DE000164B174C174D4FF08047984205D0B8421C
:101DF00003D0A04201D0A84203D122F070064A6865
:101E00003243984205D0B84203D0A04201D0A84244
:101E100003D122F44074CA6822434C6922F0800244
:101E2000224302608A68C2620A688262984201D1D3
:101E30000969016301214161F0BD0000002C0140EE
:101E4000000400400008004010B5846842EA032204
:101E500024F47F440A432243826010BD826822F04A
:101E600070020A4342F007018160704710B5036AAF
:101E7000046A24F001040462846924F0F00444EA52
:101E8000021423F00A020A438461026210BD10B5F5
:101E9000036A046A24F010040462846923F0A00336
:101EA00024F4704444EA023243EA0111826101627F
:101EB00010BD10B5406A0021C185C184FFF780F9CB
:101EC00010BD01680C3151E8002F22F4907241E8F6
:101ED0000023002BF5D10168143151E8002F22F0C6
:101EE000010241E80023002BF5D1016B012909D142
:101EF00001680C3151E8002F22F0100241E8002364
:101F0000002BF5D1202180F8421000210163704799
:101F100008B590F84210222901D0022008BD82683D
:101F20004FF480539A4201D1016921B1816A9A42EA
:101F30001BD04AB10AE00268816A5268C2F3080203
:101F40000A80816A891C08E0026972B102685268DD
:101F500002F07F020A70816A491C8162C18D491EAC
:101F60000904090CC18503D01BE002685268F1E73F
:101F70000168CA6822F02002CA600168CA6822F4B7
:101F80008072CA6001684A6922F001024A61202118
:101F900080F8421000214163026B012A03D0FFF751
:101FA000F3FA002008BD016301680C3151E8002FED
:101FB00022F0100241E80023002BF5D101680A68E5
:101FC000D20602D50A6849680091818DFFF7F7F8BB
:101FD000E7E7000070B5044600680169E26821F493
:101FE0004051114301612169A068084361690843B8
:101FF0002168CA6841F20C639A430243CA602068B0
:102000004169A26921F44071114341611E49206870
:10201000884202D1FEF7DAFD01E0FEF7C7FD00EBD2
:10202000C00101EB0012606864218000B2FBF0F394
:10203000B3FBF1F36FF018067343B2FBF0F5B2FB9C
:10204000F0F605EB8305322303EB0515B5FBF1F53F
:10205000B6FBF1F605F0F00505EB0615B2FBF0F660
:10206000B2FBF0F0B0FBF1F06FF01802504306EB5A
:10207000800003EB0010B0FBF1F0216800F00F00CE
:102080002844886070BD000000380140816282856C
:10209000C28500214164222180F84210016921B1EA
:1020A0000168CA6842F48072CA6001684A6942F0F5
:1020B00001024A610068C16841F02001C16000204E
:1020C000704700000148FFF77DB80000BC00002009
:1020D0000148FFF777B8000004010020FEE7000088
:1020E00001B584B00121642204A88DE807000B46E5
:1020F000002278210248FEF763FB05B000BD000016
:102100002000002001B584B00121642204A88DE8DC
:1021100007000B46402278210248FEF751FB05B02C
:1021200000BD000020000020014A024900F023B851
:10213000512200081C0000200907090E002804DBBA
:1021400000F1E02080F80014704700F00F0000F16B
:10215000E02080F8141D704702E008C8121F08C173
:10216000002AFAD170477047002001E001C1121F18
:10217000002AFBD170472DE9F04116460F46044670
:10218000002503E03946B047641C6D1C2078002808
:10219000F8D12846BDE8F08110B51BA0FFF7C4FFB9
:1021A0004FF47A742046FEF735F917A0FFF7BCFF0D
:1021B0002046FEF72FF917A0FFF7B6FF2046FEF7DF
:1021C00029F918A0FFF7B0FF40F6B8342046FEF713
:1021D00021F91B48FFF7A8FF2046FEF71BF9194815
:1021E000FFF7A2FF2046FEF715F91748FFF79CFFFF
:1021F0002046FEF70FF91548FFF796FF2046BDE889
:102200001040FEF707B9000041542B5253540D0AF9
:102210000000000041542B43574D4F44453D310DC4
:102220000A00000041542B43574A41503D22424B83
:10223000222C22313233343536373839220D0A0018
:10224000B42B0008682D0008842C0008D02C00084E
:1022500004490A685206FCD5024AC1B2121D116037
:10226000704700000038014008B5FEF779FBFFF722
:1022700085FDFFF729FBFFF7CFFBFFF779FBFFF7A2
:1022800097FBFFF7E5FB012226492748FFF76EF988
:10229000FFF71CFCFFF7FAFBFFF77EFFDFF88C80EF
:1022A000234C4FF4005740F6B8392088000412D56B
:1022B00020A12348FDF748FF08B1002205E021A135
:1022C0001F48FDF741FF20B1012239464046FEF785
:1022D000A8F900202080FDF779FFD8B102231CA2C5
:1022E00000213220FFF7DAFC1A4E1025009500215C
:1022F000327803230846FFF79BFC022316A2032132
:102300003220FFF7CBFC00950323B278194600205A
:10231000FFF78EFC1148FFF707FF4846FEF77AF8F3
:10232000C3E7000006000020BC00002000100140B0
:10233000080000207B224C4544223A317D000000F9
:102340004C0100207B224C4544223A307D000000A5
:10235000534400000000002054000000842C0008BA
:102360000246012000E05043491EC9B2FBD270472B
:102370000000000000000000002F00000000070027
:10238000070000147F147F1400242A7F2A120062A1
:10239000640813230036495522500000050300004D
:1023A00000001C224100000041221C000014083ED5
:1023B00008140008083E0808000000A0600000089B
:1023C00008080808000060600000002010080402EF
:1023D000003E5149453E0000427F400000426151AD
:1023E0004946002141454B31001814127F10002747
:1023F00045454539003C4A4949300001710905030A
:1024000000364949493600064949291E000036363A
:10241000000000005636000000081422410000149D
:10242000141414140000412214080002015109067A
:1024300000324959513E007C1211127C007F4949FB
:102440004936003E41414122007F4141221C007F2C
:1024500049494941007F09090901003E4149497A3A
:10246000007F0808087F0000417F410000204041B4
:102470003F01007F08142241007F40404040007F20
:10248000020C027F007F0408107F003E4141413E64
:10249000007F09090906003E4151215E007F0919AC
:1024A00029460046494949310001017F0101003FA9
:1024B0004040403F001F2040201F003F4038403F29
:1024C000006314081463000708700807006151498D
:1024D000454300007F41410000552A552A55000020
:1024E00041417F000004020102040040404040409E
:1024F000000001020400002054545478007F484436
:10250000443800384444442000384444487F00386C
:102510005454541800087E0901020018A4A4A47C95
:10252000007F080404780000447D4000004080845F
:102530007D00007F102844000000417F4000007CA7
:1025400004180478007C08040478003844444438B3
:1025500000FC242424180018242418FC007C0804FF
:10256000040800485454542000043F444020003CD8
:102570004040207C001C2040201C003C4030403C5F
:10258000004428102844001CA0A0A07C00446454EF
:102590004C44141414141414000000000000000033
:1025A0000000000000000000000000F80000000033
:1025B000000000333000000000100C06100C060074
:1025C000000000000000000040C07840C0784000DB
:1025D000043F04043F040400007088FC083000003D
:1025E000001820FF211E0000F008F000E018000095
:1025F00000211C031E211E0000F00888700000004E
:102600001E2123241927211010160E00000000009F
:102610000000000000000000000000E018040200BC
:10262000000000071820400000020418E00000002D
:102630000040201807000000404080F0804040002B
:102640000202010F01020200000000F00000000081
:102650000101011F01010100000000000000000055
:1026600080B07000000000000000000000000000CA
:102670000001010101010101000000000000000053
:1026800000303000000000000000000080601804EE
:10269000006018060100000000E010080810E000CB
:1026A000000F102020100F00001010F80000000094
:1026B0000020203F202000000070080808887000DB
:1026C000003028242221300000300888884830005B
:1026D0000018202020110E000000C02010F800007B
:1026E00000070424243F240000F808888808080014
:1026F0000019212020110E0000E010888818000029
:10270000000F112020110E0000380808C8380800FA
:102710000000003F0000000000708808088870007A
:10272000001C222121221C0000E010080810E000FB
:102730000000312222110F00000000C0C000000084
:1027400000000030300000000000008000000000A9
:1027500000008060000000000000804020100800A1
:10276000000102040810200040404040404040006A
:102770000404040404040400000810204080000045
:102780000020100804020100007048080808F0004A
:102790000000003036010000C030C828E810E0001A
:1027A0000718272423140B000000C038E0000000A5
:1027B000203C23020227382008F88888887000000F
:1027C000203F202020110E00C030080808083800E3
:1027D000071820202010080008F808080810E0005A
:1027E000203F202020100F0008F88888E8081000FB
:1027F000203F20202320180008F88888E8081000CF
:10280000203F200003000000C03008080838000006
:1028100007182020221E020008F808000008F80807
:10282000203F210101213F20000808F8080800008E
:102830000020203F2020000000000808F8080800C1
:10284000C08080807F00000008F888C02818080039
:10285000203F20012638200008F808000000000072
:10286000203F20202020300008F8F800F8F8080069
:10287000203F003F003F200008F830C00008F80863
:10288000203F200007183F00E01008080810E00073
:102890000F10202020100F0008F808080808F0008A
:1028A000203F210101010000E01008080810E000AD
:1028B0000F18242438504F0008F888888888700042
:1028C000203F2000030C30200070880808083800E2
:1028D0000038202121221C00180808F808081800D8
:1028E0000000203F2000000008F808000008F80859
:1028F000001F202020201F000878880000C838080A
:10290000000007380E010000F80800F80008F80081
:10291000033C0700073C030008186880806818081B
:1029200020302C03032C30200838C800C838080099
:102930000000203F2000000010080808C8380800E8
:102940002038262120201800000000FE020202008C
:102950000000007F40404000000C30C0000000003C
:10296000000000010638C00000020202FE00000064
:10297000004040407F00000000000402020204000A
:102980000000000000000000000000000000000047
:10299000808080808080808000020204000000002F
:1029A0000000000000000000000080808080000027
:1029B0000019242222223F2008F800808000000015
:1029C000003F112020110E000000008080800000D8
:1029D000000E112020201100000000808088F800E7
:1029E000000E112020103F20000080808080000019
:1029F000001F222222221300008080F0888888187D
:102A00000020203F20200000000080808080800087
:102A1000006B94949493600008F80080808000001C
:102A2000203F210000203F200080989800000000F7
:102A30000020203F20200000000000809898000027
:102A400000C08080807F000008F800008080800047
:102A5000203F24022D302000000808F8000000006C
:102A60000020203F20200000808080808080800027
:102A7000203F20003F20003F8080008080800000B9
:102A8000203F210000203F20000080808080000047
:102A9000001F202020201F00808000808000000078
:102AA00080FFA12020110E000000008080808000A7
:102AB000000E112020A0FF80808080008080800098
:102AC00020203F21200001000000808080808000C5
:102AD0000033242424241900008080E0808000003A
:102AE0000000001F20200000808000000080800087
:102AF000001F202020103F208080800000808080E8
:102B000000010E3008060100808000800080808077
:102B10000F300C030C300F0000808000808080009C
:102B20000020312E0E3120008080800000808080C7
:102B300080818E7018060100008080808080800077
:102B40000021302C2221300000000000807C020295
:102B500000000000003F404000000000FF000000B7
:102B600000000000FF0000000002027C8000000066
:102B70000040403F00000000000601010202040482
:102B80000000000000000000010202030405060727
:102B900008090A0B0C0D0E0F1010000000000000B9
:102BA00000000102030406070809000000000102FA
:102BB0000304000041542B4D515454555345524386
:102BC00046473D302C312C226B3237637874767A4D
:102BD0003942722E6D7174745F73746D33327C730D
:102BE00065637572656D6F64653D325C2C736967F2
:102BF0006E6D6574686F643D686D616373686132A2
:102C000035365C2C74696D657374616D703D313758
:102C100033363330363636363838347C222C226D13
:102C20007174745F73746D3332266B3237637874EA
:102C3000767A394272222C22343434313261333282
:102C40006137323532393863663637343464343577
:102C500062323233306366653735653864303362EB
:102C600036646662663833326430393462396432CD
:102C70006563353630376562222C302C302C2222A9
:102C80000D0A000041542B4D5154545355423D30D0
:102C90002C222F7379732F6B3237637874767A39DD
:102CA00042722F6D7174745F73746D33322F746858
:102CB000696E672F736572766963652F70726F70C6
:102CC000657274792F736574222C300D0A00000030
:102CD00041542B4D5154545055423D302C222F73AA
:102CE00079732F6B3237637874767A3942722F6D2D
:102CF0007174745F73746D33322F7468696E672FEB
:102D00006576656E742F70726F70657274792F704E
:102D10006F7374222C227B5C22706172616D735C14
:102D2000223A7B5C2274656D7065726174757265A0
:102D30005C223A32305C2C5C2248756D696469749F
:102D4000795C223A32307D5C2C5C22766572736944
:102D50006F6E5C223A5C22312E302E305C227D2256
:102D60002C302C300D0A000041542B4D515454434B
:102D70004F4E4E3D302C22696F742D30367A3030F4
:102D8000643969706B63783663662E6D7174742E66
:102D9000696F746875622E616C6979756E63732EE4
:102DA000636F6D222C313838332C300D0A0000004F
:102DB000D02D00080000002020000000582100084D
:102DC000F02D000820000020F80500006821000810
:102DD00000000000000000000000000001000000F2
:102DE00010000000000000000024F40000000000BB
:04000005080000ED02
:00000001FF
